{
    "_format": "hh-sol-artifact-1",
    "contractName": "Transaction",
    "sourceName": "contracts/Transactions.sol",
    "abi": [
        {
            "anonymous": false,
            "inputs": [
                {
                    "indexed": false,
                    "internalType": "address",
                    "name": "from",
                    "type": "address"
                },
                {
                    "indexed": false,
                    "internalType": "address",
                    "name": "receiver",
                    "type": "address"
                },
                {
                    "indexed": false,
                    "internalType": "uint256",
                    "name": "amount",
                    "type": "uint256"
                },
                {
                    "indexed": false,
                    "internalType": "string",
                    "name": "message",
                    "type": "string"
                },
                {
                    "indexed": false,
                    "internalType": "uint256",
                    "name": "timeStamp",
                    "type": "uint256"
                },
                {
                    "indexed": false,
                    "internalType": "string",
                    "name": "keyword",
                    "type": "string"
                }
            ],
            "name": "Transfer",
            "type": "event"
        },
        {
            "inputs": [
                {
                    "internalType": "address payable",
                    "name": "receiver",
                    "type": "address"
                },
                {
                    "internalType": "uint256",
                    "name": "amount",
                    "type": "uint256"
                },
                {
                    "internalType": "string",
                    "name": "message",
                    "type": "string"
                },
                {
                    "internalType": "string",
                    "name": "keyword",
                    "type": "string"
                }
            ],
            "name": "addToBlockchain",
            "outputs": [],
            "stateMutability": "nonpayable",
            "type": "function"
        },
        {
            "inputs": [],
            "name": "getAllTransactions",
            "outputs": [
                {
                    "components": [
                        {
                            "internalType": "address",
                            "name": "sender",
                            "type": "address"
                        },
                        {
                            "internalType": "address",
                            "name": "receiver",
                            "type": "address"
                        },
                        {
                            "internalType": "uint256",
                            "name": "amount",
                            "type": "uint256"
                        },
                        {
                            "internalType": "string",
                            "name": "message",
                            "type": "string"
                        },
                        {
                            "internalType": "uint256",
                            "name": "timeStamp",
                            "type": "uint256"
                        },
                        {
                            "internalType": "string",
                            "name": "keyword",
                            "type": "string"
                        }
                    ],
                    "internalType": "struct Transaction.TransferStruct[]",
                    "name": "",
                    "type": "tuple[]"
                }
            ],
            "stateMutability": "view",
            "type": "function"
        },
        {
            "inputs": [],
            "name": "getTransactionCounter",
            "outputs": [
                {
                    "internalType": "uint256",
                    "name": "",
                    "type": "uint256"
                }
            ],
            "stateMutability": "view",
            "type": "function"
        },
        {
            "inputs": [],
            "name": "transactionCounter",
            "outputs": [
                {
                    "internalType": "uint256",
                    "name": "",
                    "type": "uint256"
                }
            ],
            "stateMutability": "view",
            "type": "function"
        }
    ],
    "bytecode": "0x608060405234801561001057600080fd5b50610e3b806100206000396000f3fe608060405234801561001057600080fd5b506004361061004c5760003560e01c806314e887e81461005157806327506f531461006f5780632dd1b86b1461008d578063cc2d7ead146100ab575b600080fd5b6100596100c7565b60405161006691906104e6565b60405180910390f35b6100776100cd565b6040516100849190610733565b60405180910390f35b610095610310565b6040516100a291906104e6565b60405180910390f35b6100c560048036038101906100c09190610908565b610319565b005b60005481565b60606001805480602002602001604051908101604052809291908181526020016000905b8282101561030757838290600052602060002090600602016040518060c00160405290816000820160009054906101000a900473ffffffffffffffffffffffffffffffffffffffff1673ffffffffffffffffffffffffffffffffffffffff1673ffffffffffffffffffffffffffffffffffffffff1681526020016001820160009054906101000a900473ffffffffffffffffffffffffffffffffffffffff1673ffffffffffffffffffffffffffffffffffffffff1673ffffffffffffffffffffffffffffffffffffffff168152602001600282015481526020016003820180546101da906109d6565b80601f0160208091040260200160405190810160405280929190818152602001828054610206906109d6565b80156102535780601f1061022857610100808354040283529160200191610253565b820191906000526020600020905b81548152906001019060200180831161023657829003601f168201915b5050505050815260200160048201548152602001600582018054610276906109d6565b80601f01602080910402602001604051908101604052809291908181526020018280546102a2906109d6565b80156102ef5780601f106102c4576101008083540402835291602001916102ef565b820191906000526020600020905b8154815290600101906020018083116102d257829003601f168201915b505050505081525050815260200190600101906100f1565b50505050905090565b60008054905090565b600160008082825461032b9190610a36565b9250508190555060016040518060c001604052803373ffffffffffffffffffffffffffffffffffffffff1681526020018673ffffffffffffffffffffffffffffffffffffffff16815260200185815260200184815260200142815260200183815250908060018154018082558091505060019003906000526020600020906006020160009091909190915060008201518160000160006101000a81548173ffffffffffffffffffffffffffffffffffffffff021916908373ffffffffffffffffffffffffffffffffffffffff16021790555060208201518160010160006101000a81548173ffffffffffffffffffffffffffffffffffffffff021916908373ffffffffffffffffffffffffffffffffffffffff1602179055506040820151816002015560608201518160030190816104639190610c16565b506080820151816004015560a08201518160050190816104839190610c16565b5050507f416cfa4330a4565f45c2fd2dd4826a83a37443aba2ce6f79477c7355afac35fa3385858542866040516104bf96959493929190610d96565b60405180910390a150505050565b6000819050919050565b6104e0816104cd565b82525050565b60006020820190506104fb60008301846104d7565b92915050565b600081519050919050565b600082825260208201905092915050565b6000819050602082019050919050565b600073ffffffffffffffffffffffffffffffffffffffff82169050919050565b60006105588261052d565b9050919050565b6105688161054d565b82525050565b610577816104cd565b82525050565b600081519050919050565b600082825260208201905092915050565b60005b838110156105b757808201518184015260208101905061059c565b60008484015250505050565b6000601f19601f8301169050919050565b60006105df8261057d565b6105e98185610588565b93506105f9818560208601610599565b610602816105c3565b840191505092915050565b600060c083016000830151610625600086018261055f565b506020830151610638602086018261055f565b50604083015161064b604086018261056e565b506060830151848203606086015261066382826105d4565b9150506080830151610678608086018261056e565b5060a083015184820360a086015261069082826105d4565b9150508091505092915050565b60006106a9838361060d565b905092915050565b6000602082019050919050565b60006106c982610501565b6106d3818561050c565b9350836020820285016106e58561051d565b8060005b858110156107215784840389528151610702858261069d565b945061070d836106b1565b925060208a019950506001810190506106e9565b50829750879550505050505092915050565b6000602082019050818103600083015261074d81846106be565b905092915050565b6000604051905090565b600080fd5b600080fd5b60006107748261052d565b9050919050565b61078481610769565b811461078f57600080fd5b50565b6000813590506107a18161077b565b92915050565b6107b0816104cd565b81146107bb57600080fd5b50565b6000813590506107cd816107a7565b92915050565b600080fd5b600080fd5b7f4e487b7100000000000000000000000000000000000000000000000000000000600052604160045260246000fd5b610815826105c3565b810181811067ffffffffffffffff82111715610834576108336107dd565b5b80604052505050565b6000610847610755565b9050610853828261080c565b919050565b600067ffffffffffffffff821115610873576108726107dd565b5b61087c826105c3565b9050602081019050919050565b82818337600083830152505050565b60006108ab6108a684610858565b61083d565b9050828152602081018484840111156108c7576108c66107d8565b5b6108d2848285610889565b509392505050565b600082601f8301126108ef576108ee6107d3565b5b81356108ff848260208601610898565b91505092915050565b600080600080608085870312156109225761092161075f565b5b600061093087828801610792565b9450506020610941878288016107be565b935050604085013567ffffffffffffffff81111561096257610961610764565b5b61096e878288016108da565b925050606085013567ffffffffffffffff81111561098f5761098e610764565b5b61099b878288016108da565b91505092959194509250565b7f4e487b7100000000000000000000000000000000000000000000000000000000600052602260045260246000fd5b600060028204905060018216806109ee57607f821691505b602082108103610a0157610a006109a7565b5b50919050565b7f4e487b7100000000000000000000000000000000000000000000000000000000600052601160045260246000fd5b6000610a41826104cd565b9150610a4c836104cd565b9250828201905080821115610a6457610a63610a07565b5b92915050565b60008190508160005260206000209050919050565b60006020601f8301049050919050565b600082821b905092915050565b600060088302610acc7fffffffffffffffffffffffffffffffffffffffffffffffffffffffffffffffff82610a8f565b610ad68683610a8f565b95508019841693508086168417925050509392505050565b6000819050919050565b6000610b13610b0e610b09846104cd565b610aee565b6104cd565b9050919050565b6000819050919050565b610b2d83610af8565b610b41610b3982610b1a565b848454610a9c565b825550505050565b600090565b610b56610b49565b610b61818484610b24565b505050565b5b81811015610b8557610b7a600082610b4e565b600181019050610b67565b5050565b601f821115610bca57610b9b81610a6a565b610ba484610a7f565b81016020851015610bb3578190505b610bc7610bbf85610a7f565b830182610b66565b50505b505050565b600082821c905092915050565b6000610bed60001984600802610bcf565b1980831691505092915050565b6000610c068383610bdc565b9150826002028217905092915050565b610c1f8261057d565b67ffffffffffffffff811115610c3857610c376107dd565b5b610c4282546109d6565b610c4d828285610b89565b600060209050601f831160018114610c805760008415610c6e578287015190505b610c788582610bfa565b865550610ce0565b601f198416610c8e86610a6a565b60005b82811015610cb657848901518255600182019150602085019450602081019050610c91565b86831015610cd35784890151610ccf601f891682610bdc565b8355505b6001600288020188555050505b505050505050565b610cf18161054d565b82525050565b6000610d12610d0d610d088461052d565b610aee565b61052d565b9050919050565b6000610d2482610cf7565b9050919050565b6000610d3682610d19565b9050919050565b610d4681610d2b565b82525050565b600082825260208201905092915050565b6000610d688261057d565b610d728185610d4c565b9350610d82818560208601610599565b610d8b816105c3565b840191505092915050565b600060c082019050610dab6000830189610ce8565b610db86020830188610d3d565b610dc560408301876104d7565b8181036060830152610dd78186610d5d565b9050610de660808301856104d7565b81810360a0830152610df88184610d5d565b905097965050505050505056fea2646970667358221220fb96406d8c873481d2c3fc7eea9114430823e28b0f352f7f82e1db21a3385cb364736f6c63430008120033",
    "linkReferences": {},
    "deployedLinkReferences": {}
}